{
    "_format": "hh-sol-artifact-1",
    "contractName": "medicPlus",
    "sourceName": "contracts/HealthFinal.sol",
    "abi": [
        {
            "inputs": [],
            "stateMutability": "nonpayable",
            "type": "constructor"
        },
        {
            "anonymous": false,
            "inputs": [
                {
                    "indexed": false,
                    "internalType": "uint256",
                    "name": "id",
                    "type": "uint256"
                },
                {
                    "indexed": false,
                    "internalType": "string",
                    "name": "name",
                    "type": "string"
                }
            ],
            "name": "ManufacturerRegistered",
            "type": "event"
        },
        {
            "anonymous": false,
            "inputs": [
                {
                    "indexed": false,
                    "internalType": "uint256",
                    "name": "id",
                    "type": "uint256"
                },
                {
                    "indexed": false,
                    "internalType": "string",
                    "name": "name",
                    "type": "string"
                }
            ],
            "name": "MedicineRegistered",
            "type": "event"
        },
        {
            "inputs": [],
            "name": "Ayush",
            "outputs": [
                {
                    "internalType": "address",
                    "name": "",
                    "type": "address"
                }
            ],
            "stateMutability": "view",
            "type": "function"
        },
        {
            "inputs": [
                {
                    "internalType": "string",
                    "name": "_data",
                    "type": "string"
                }
            ],
            "name": "addOCRData",
            "outputs": [],
            "stateMutability": "nonpayable",
            "type": "function"
        },
        {
            "inputs": [],
            "name": "getAllPatients",
            "outputs": [
                {
                    "components": [
                        {
                            "internalType": "address",
                            "name": "patientAddress",
                            "type": "address"
                        },
                        {
                            "internalType": "string",
                            "name": "ID",
                            "type": "string"
                        },
                        {
                            "internalType": "string[]",
                            "name": "OCRDATA",
                            "type": "string[]"
                        }
                    ],
                    "internalType": "struct Patient[]",
                    "name": "",
                    "type": "tuple[]"
                }
            ],
            "stateMutability": "view",
            "type": "function"
        },
        {
            "inputs": [
                {
                    "internalType": "string",
                    "name": "uID",
                    "type": "string"
                }
            ],
            "name": "getDoctor",
            "outputs": [
                {
                    "components": [
                        {
                            "internalType": "address",
                            "name": "doctorAddress",
                            "type": "address"
                        },
                        {
                            "internalType": "string",
                            "name": "ID",
                            "type": "string"
                        }
                    ],
                    "internalType": "struct Doctor",
                    "name": "",
                    "type": "tuple"
                }
            ],
            "stateMutability": "view",
            "type": "function"
        },
        {
            "inputs": [],
            "name": "getOCRData",
            "outputs": [
                {
                    "internalType": "string[]",
                    "name": "",
                    "type": "string[]"
                }
            ],
            "stateMutability": "view",
            "type": "function"
        },
        {
            "inputs": [
                {
                    "internalType": "string",
                    "name": "uID",
                    "type": "string"
                }
            ],
            "name": "getPatient",
            "outputs": [
                {
                    "components": [
                        {
                            "internalType": "address",
                            "name": "patientAddress",
                            "type": "address"
                        },
                        {
                            "internalType": "string",
                            "name": "ID",
                            "type": "string"
                        },
                        {
                            "internalType": "string[]",
                            "name": "OCRDATA",
                            "type": "string[]"
                        }
                    ],
                    "internalType": "struct Patient",
                    "name": "",
                    "type": "tuple"
                }
            ],
            "stateMutability": "view",
            "type": "function"
        },
        {
            "inputs": [
                {
                    "internalType": "uint256",
                    "name": "",
                    "type": "uint256"
                }
            ],
            "name": "patientUIDstr",
            "outputs": [
                {
                    "internalType": "string",
                    "name": "",
                    "type": "string"
                }
            ],
            "stateMutability": "view",
            "type": "function"
        },
        {
            "inputs": [
                {
                    "internalType": "string",
                    "name": "_ID",
                    "type": "string"
                }
            ],
            "name": "registerDoctor",
            "outputs": [],
            "stateMutability": "nonpayable",
            "type": "function"
        },
        {
            "inputs": [
                {
                    "internalType": "string",
                    "name": "_ID",
                    "type": "string"
                }
            ],
            "name": "registerPatient",
            "outputs": [],
            "stateMutability": "nonpayable",
            "type": "function"
        }
    ],
    "bytecode": "0x608060405234801561001057600080fd5b506000600181905560028190556003819055600481905580546001600160a01b03191633179055611077806100466000396000f3fe608060405234801561001057600080fd5b50600436106100935760003560e01c80636049909211610066578063604990921461010b578063869c9eaf1461012b5780638f09ab5b1461013e578063b2f3e89e14610151578063e79a7a2e1461017157600080fd5b806318a231a91461009857806324f4c856146100b657806326fbd951146100e157806346537840146100f6575b600080fd5b6100a0610191565b6040516100ad9190610d1c565b60405180910390f35b6000546100c9906001600160a01b031681565b6040516001600160a01b0390911681526020016100ad565b6100f46100ef366004610d94565b610431565b005b6100fe6104d5565b6040516100ad9190610e45565b61011e610119366004610d94565b6105bc565b6040516100ad9190610e9a565b6100f4610139366004610d94565b6106bf565b6100f461014c366004610d94565b610803565b61016461015f366004610ecf565b6108fb565b6040516100ad9190610ee8565b61018461017f366004610d94565b6109a7565b6040516100ad9190610f02565b6060600060035467ffffffffffffffff8111156101b0576101b0610d7e565b60405190808252806020026020018201604052801561020e57816020015b6101fb604051806060016040528060006001600160a01b0316815260200160608152602001606081525090565b8152602001906001900390816101ce5790505b50905060005b600a5481101561042b57600660006007600a848154811061023757610237610f15565b9060005260206000200160405161024e9190610f60565b9081526040805160209281900383019020546001600160a01b0390811684528383019490945291820160002082516060810190935280549093168252600183018054929392918401916102a090610f2b565b80601f01602080910402602001604051908101604052809291908181526020018280546102cc90610f2b565b80156103195780601f106102ee57610100808354040283529160200191610319565b820191906000526020600020905b8154815290600101906020018083116102fc57829003601f168201915b5050505050815260200160028201805480602002602001604051908101604052809291908181526020016000905b828210156103f357838290600052602060002001805461036690610f2b565b80601f016020809104026020016040519081016040528092919081815260200182805461039290610f2b565b80156103df5780601f106103b4576101008083540402835291602001916103df565b820191906000526020600020905b8154815290600101906020018083116103c257829003601f168201915b505050505081526020019060010190610347565b505050508152505082828151811061040d5761040d610f15565b6020026020010181905250808061042390610ffc565b915050610214565b50919050565b336000908152600660205260409020546001600160a01b031661049b5760405162461bcd60e51b815260206004820181905260248201527f55534552204e4f54205245474953544552454420617320612050617469656e7460448201526064015b60405180910390fd5b336000908152600660209081526040822060020180546001810182559083529181902083516104d1939190910191840190610b9b565b5050565b336000908152600660209081526040808320600201805482518185028101850190935280835260609492939192909184015b828210156105b357838290600052602060002001805461052690610f2b565b80601f016020809104026020016040519081016040528092919081815260200182805461055290610f2b565b801561059f5780601f106105745761010080835404028352916020019161059f565b820191906000526020600020905b81548152906001019060200180831161058257829003601f168201915b505050505081526020019060010190610507565b50505050905090565b604080518082019091526000815260606020820152600560006008846040516105e59190611025565b9081526040805160209281900383019020546001600160a01b039081168452838301949094529182016000208251808401909352805490931682526001830180549293929184019161063690610f2b565b80601f016020809104026020016040519081016040528092919081815260200182805461066290610f2b565b80156106af5780601f10610684576101008083540402835291602001916106af565b820191906000526020600020905b81548152906001019060200180831161069257829003601f168201915b5050505050815250509050919050565b336000908152600660205260409020546001600160a01b0316156107315760405162461bcd60e51b8152602060048201526024808201527f5573657220416c726561647920526567697374657265642061732061205061746044820152631a595b9d60e21b6064820152608401610492565b33600081815260066020908152604090912080546001600160a01b031916909217825582516107669260010191840190610b9b565b50336007826040516107789190611025565b9081526040516020918190038201902080546001600160a01b0319166001600160a01b039390931692909217909155600a805460018101825560009190915282516107ea927fc65a7bb8d6351c1cf70c95a316cc6a92839c986682d98bc35f958f4883f9d2a890920191840190610b9b565b50600380549060006107fb83610ffc565b919050555050565b336000908152600560205260409020546001600160a01b0316156108755760405162461bcd60e51b815260206004820152602360248201527f5573657220416c72656164792052656769737465726564206173206120446f636044820152623a37b960e91b6064820152608401610492565b33600081815260056020908152604090912080546001600160a01b031916909217825582516108aa9260010191840190610b9b565b50336008826040516108bc9190611025565b90815260405190819003602001902080546001600160a01b03929092166001600160a01b0319909216919091179055600280549060006107fb83610ffc565b600a818154811061090b57600080fd5b90600052602060002001600091509050805461092690610f2b565b80601f016020809104026020016040519081016040528092919081815260200182805461095290610f2b565b801561099f5780601f106109745761010080835404028352916020019161099f565b820191906000526020600020905b81548152906001019060200180831161098257829003601f168201915b505050505081565b6109d4604051806060016040528060006001600160a01b0316815260200160608152602001606081525090565b600660006007846040516109e89190611025565b9081526040805160209281900383019020546001600160a01b039081168452838301949094529182016000208251606081019093528054909316825260018301805492939291840191610a3a90610f2b565b80601f0160208091040260200160405190810160405280929190818152602001828054610a6690610f2b565b8015610ab35780601f10610a8857610100808354040283529160200191610ab3565b820191906000526020600020905b815481529060010190602001808311610a9657829003601f168201915b5050505050815260200160028201805480602002602001604051908101604052809291908181526020016000905b82821015610b8d578382906000526020600020018054610b0090610f2b565b80601f0160208091040260200160405190810160405280929190818152602001828054610b2c90610f2b565b8015610b795780601f10610b4e57610100808354040283529160200191610b79565b820191906000526020600020905b815481529060010190602001808311610b5c57829003601f168201915b505050505081526020019060010190610ae1565b505050915250909392505050565b828054610ba790610f2b565b90600052602060002090601f016020900481019282610bc95760008555610c0f565b82601f10610be257805160ff1916838001178555610c0f565b82800160010185558215610c0f579182015b82811115610c0f578251825591602001919060010190610bf4565b50610c1b929150610c1f565b5090565b5b80821115610c1b5760008155600101610c20565b60005b83811015610c4f578181015183820152602001610c37565b83811115610c5e576000848401525b50505050565b60008151808452610c7c816020860160208601610c34565b601f01601f19169290920160200192915050565b60018060a01b0381511682526000602080830151606082860152610cb76060860182610c64565b9050604084015185820360408701528181518084528484019150848160051b850101858401935060005b82811015610d0f57601f19868303018452610cfd828651610c64565b94870194938701939150600101610ce1565b5098975050505050505050565b6000602080830181845280855180835260408601915060408160051b870101925083870160005b82811015610d7157603f19888603018452610d5f858351610c90565b94509285019290850190600101610d43565b5092979650505050505050565b634e487b7160e01b600052604160045260246000fd5b600060208284031215610da657600080fd5b813567ffffffffffffffff80821115610dbe57600080fd5b818401915084601f830112610dd257600080fd5b813581811115610de457610de4610d7e565b604051601f8201601f19908116603f01168101908382118183101715610e0c57610e0c610d7e565b81604052828152876020848701011115610e2557600080fd5b826020860160208301376000928101602001929092525095945050505050565b6000602080830181845280855180835260408601915060408160051b870101925083870160005b82811015610d7157603f19888603018452610e88858351610c64565b94509285019290850190600101610e6c565b602080825282516001600160a01b031682820152820151604080830152600090610ec76060840182610c64565b949350505050565b600060208284031215610ee157600080fd5b5035919050565b602081526000610efb6020830184610c64565b9392505050565b602081526000610efb6020830184610c90565b634e487b7160e01b600052603260045260246000fd5b600181811c90821680610f3f57607f821691505b6020821081141561042b57634e487b7160e01b600052602260045260246000fd5b600080835481600182811c915080831680610f7c57607f831692505b6020808410821415610f9c57634e487b7160e01b86526022600452602486fd5b818015610fb05760018114610fc157610fee565b60ff19861689528489019650610fee565b60008a81526020902060005b86811015610fe65781548b820152908501908301610fcd565b505084890196505b509498975050505050505050565b600060001982141561101e57634e487b7160e01b600052601160045260246000fd5b5060010190565b60008251611037818460208701610c34565b919091019291505056fea2646970667358221220d6be3801c3812fd011dff657f8bcaff519ca6c1ddfb165cb183e7e3d2c0cbda464736f6c63430008090033",
    "linkReferences": {},
    "deployedLinkReferences": {}
}